{
  "contractName": "VaccineCertificate",
  "abi": [
    {
      "inputs": [
        {
          "internalType": "string",
          "name": "_name",
          "type": "string"
        },
        {
          "internalType": "string",
          "name": "_aadhar",
          "type": "string"
        },
        {
          "internalType": "string",
          "name": "_dateOfBirth",
          "type": "string"
        },
        {
          "internalType": "string",
          "name": "_vaccineDate",
          "type": "string"
        },
        {
          "internalType": "string",
          "name": "_vaccineType",
          "type": "string"
        }
      ],
      "name": "issueCertificate",
      "outputs": [],
      "stateMutability": "nonpayable",
      "type": "function"
    },
    {
      "inputs": [
        {
          "internalType": "string",
          "name": "aadhar",
          "type": "string"
        }
      ],
      "name": "getCertificate",
      "outputs": [
        {
          "components": [
            {
              "internalType": "string",
              "name": "name",
              "type": "string"
            },
            {
              "internalType": "string",
              "name": "aadhar_number",
              "type": "string"
            },
            {
              "internalType": "string",
              "name": "dateOfBirth",
              "type": "string"
            },
            {
              "internalType": "string",
              "name": "vaccineDate",
              "type": "string"
            },
            {
              "internalType": "string",
              "name": "vaccineType",
              "type": "string"
            },
            {
              "internalType": "bool",
              "name": "isIssued",
              "type": "bool"
            }
          ],
          "internalType": "struct VaccineCertificate.Certificate",
          "name": "",
          "type": "tuple"
        }
      ],
      "stateMutability": "view",
      "type": "function",
      "constant": true
    }
  ],
  "bytecode": "0x608060405234801561001057600080fd5b50610c54806100206000396000f3fe608060405234801561001057600080fd5b50600436106100365760003560e01c8063353181581461003b578063ed0f2e7514610057575b600080fd5b61005560048036038101906100509190610632565b610087565b005b610071600480360381019061006c9190610739565b610173565b60405161007e91906108c1565b60405180910390f35b60006040518060c00160405280878152602001868152602001858152602001848152602001838152602001600115158152509050806000866040516100cc919061091f565b908152602001604051809103902060008201518160000190816100ef9190610b4c565b5060208201518160010190816101059190610b4c565b50604082015181600201908161011b9190610b4c565b5060608201518160030190816101319190610b4c565b5060808201518160040190816101479190610b4c565b5060a08201518160050160006101000a81548160ff021916908315150217905550905050505050505050565b61017b6104a0565b60008260405161018b919061091f565b90815260200160405180910390206040518060c00160405290816000820180546101b490610965565b80601f01602080910402602001604051908101604052809291908181526020018280546101e090610965565b801561022d5780601f106102025761010080835404028352916020019161022d565b820191906000526020600020905b81548152906001019060200180831161021057829003601f168201915b5050505050815260200160018201805461024690610965565b80601f016020809104026020016040519081016040528092919081815260200182805461027290610965565b80156102bf5780601f10610294576101008083540402835291602001916102bf565b820191906000526020600020905b8154815290600101906020018083116102a257829003601f168201915b505050505081526020016002820180546102d890610965565b80601f016020809104026020016040519081016040528092919081815260200182805461030490610965565b80156103515780601f1061032657610100808354040283529160200191610351565b820191906000526020600020905b81548152906001019060200180831161033457829003601f168201915b5050505050815260200160038201805461036a90610965565b80601f016020809104026020016040519081016040528092919081815260200182805461039690610965565b80156103e35780601f106103b8576101008083540402835291602001916103e3565b820191906000526020600020905b8154815290600101906020018083116103c657829003601f168201915b505050505081526020016004820180546103fc90610965565b80601f016020809104026020016040519081016040528092919081815260200182805461042890610965565b80156104755780601f1061044a57610100808354040283529160200191610475565b820191906000526020600020905b81548152906001019060200180831161045857829003601f168201915b505050505081526020016005820160009054906101000a900460ff1615151515815250509050919050565b6040518060c0016040528060608152602001606081526020016060815260200160608152602001606081526020016000151581525090565b6000604051905090565b600080fd5b600080fd5b600080fd5b600080fd5b6000601f19601f8301169050919050565b7f4e487b7100000000000000000000000000000000000000000000000000000000600052604160045260246000fd5b61053f826104f6565b810181811067ffffffffffffffff8211171561055e5761055d610507565b5b80604052505050565b60006105716104d8565b905061057d8282610536565b919050565b600067ffffffffffffffff82111561059d5761059c610507565b5b6105a6826104f6565b9050602081019050919050565b82818337600083830152505050565b60006105d56105d084610582565b610567565b9050828152602081018484840111156105f1576105f06104f1565b5b6105fc8482856105b3565b509392505050565b600082601f830112610619576106186104ec565b5b81356106298482602086016105c2565b91505092915050565b600080600080600060a0868803121561064e5761064d6104e2565b5b600086013567ffffffffffffffff81111561066c5761066b6104e7565b5b61067888828901610604565b955050602086013567ffffffffffffffff811115610699576106986104e7565b5b6106a588828901610604565b945050604086013567ffffffffffffffff8111156106c6576106c56104e7565b5b6106d288828901610604565b935050606086013567ffffffffffffffff8111156106f3576106f26104e7565b5b6106ff88828901610604565b925050608086013567ffffffffffffffff8111156107205761071f6104e7565b5b61072c88828901610604565b9150509295509295909350565b60006020828403121561074f5761074e6104e2565b5b600082013567ffffffffffffffff81111561076d5761076c6104e7565b5b61077984828501610604565b91505092915050565b600081519050919050565b600082825260208201905092915050565b60005b838110156107bc5780820151818401526020810190506107a1565b60008484015250505050565b60006107d382610782565b6107dd818561078d565b93506107ed81856020860161079e565b6107f6816104f6565b840191505092915050565b60008115159050919050565b61081681610801565b82525050565b600060c083016000830151848203600086015261083982826107c8565b9150506020830151848203602086015261085382826107c8565b9150506040830151848203604086015261086d82826107c8565b9150506060830151848203606086015261088782826107c8565b915050608083015184820360808601526108a182826107c8565b91505060a08301516108b660a086018261080d565b508091505092915050565b600060208201905081810360008301526108db818461081c565b905092915050565b600081905092915050565b60006108f982610782565b61090381856108e3565b935061091381856020860161079e565b80840191505092915050565b600061092b82846108ee565b915081905092915050565b7f4e487b7100000000000000000000000000000000000000000000000000000000600052602260045260246000fd5b6000600282049050600182168061097d57607f821691505b6020821081036109905761098f610936565b5b50919050565b60008190508160005260206000209050919050565b60006020601f8301049050919050565b600082821b905092915050565b6000600883026109f87fffffffffffffffffffffffffffffffffffffffffffffffffffffffffffffffff826109bb565b610a0286836109bb565b95508019841693508086168417925050509392505050565b6000819050919050565b6000819050919050565b6000610a49610a44610a3f84610a1a565b610a24565b610a1a565b9050919050565b6000819050919050565b610a6383610a2e565b610a77610a6f82610a50565b8484546109c8565b825550505050565b600090565b610a8c610a7f565b610a97818484610a5a565b505050565b5b81811015610abb57610ab0600082610a84565b600181019050610a9d565b5050565b601f821115610b0057610ad181610996565b610ada846109ab565b81016020851015610ae9578190505b610afd610af5856109ab565b830182610a9c565b50505b505050565b600082821c905092915050565b6000610b2360001984600802610b05565b1980831691505092915050565b6000610b3c8383610b12565b9150826002028217905092915050565b610b5582610782565b67ffffffffffffffff811115610b6e57610b6d610507565b5b610b788254610965565b610b83828285610abf565b600060209050601f831160018114610bb65760008415610ba4578287015190505b610bae8582610b30565b865550610c16565b601f198416610bc486610996565b60005b82811015610bec57848901518255600182019150602085019450602081019050610bc7565b86831015610c095784890151610c05601f891682610b12565b8355505b6001600288020188555050505b50505050505056fea264697066735822122076bba072efabff988763545b499e9ec6182289e7d91d6df10f0074316a2f6dd964736f6c63430008130033",
  "immutableReferences": {},
  "source": "pragma solidity ^0.8.0;\r\n\r\ncontract VaccineCertificate {\r\n    struct Certificate {\r\n        string name;\r\n        string aadhar_number;\r\n        string dateOfBirth;\r\n        string vaccineDate;\r\n        string vaccineType;\r\n        bool isIssued;\r\n    }\r\n    // address issuerAddress;\r\n\r\n    // issuerAddress = 0x04D8E8D88AADdc59F4e2B4260706A9A15f641F11;\r\n\r\n    mapping(string => Certificate) certificates;\r\n\r\n    function issueCertificate(string memory _name, string memory _aadhar, string memory _dateOfBirth, string memory _vaccineDate, string memory _vaccineType) public {\r\n        Certificate memory newCertificate = Certificate(_name, _aadhar, _dateOfBirth, _vaccineDate, _vaccineType, true);\r\n        certificates[_aadhar] = newCertificate;\r\n    }\r\n\r\n    function getCertificate(string memory aadhar) public view returns (Certificate memory) {\r\n        return certificates[aadhar];\r\n    }\r\n}",
  "sourcePath": "E:\\B4_LY\\Sem8\\Blockchain\\IA2\\vaccine-certificate-ia\\contracts\\VaccineCertificate.sol",
  "compiler": {
    "name": "solc",
    "version": "0.8.19+commit.7dd6d404.Emscripten.clang"
  },
  "schemaVersion": "3.4.7",
  "updatedAt": "2023-04-12T09:21:34.534Z",
  "networkType": "ethereum",
  "devdoc": {
    "kind": "dev",
    "methods": {},
    "version": 1
  },
  "userdoc": {
    "kind": "user",
    "methods": {},
    "version": 1
  }
}